:020000040800F2
:10000000982300209D010008A1440008893F0008B2
:100010009D4400083108000829760008000000000F
:10002000000000000000000000000000014900087E
:100030001D0A00080000000055480008FD4B00089C
:10004000B7010008B7010008B7010008B7010008B0
:10005000B7010008B7010008B7010008B7010008A0
:10006000B7010008B7010008B7010008B701000890
:10007000B7010008B7010008B7010008B701000880
:10008000B7010008B701000815080008B70100080B
:10009000B7010008B7010008B7010008210A0008ED
:1000A000C14C0008014D0008F54C0008CD4C00087B
:1000B0000D4D0008B7010008B7010008B70100089E
:1000C000B7010008B7010008B7010008B701000830
:1000D000B7010008B7010008B7010008B701000820
:1000E000B7010008B7010008B7010008B701000810
:1000F000B7010008B7010008B7010008B701000800
:10010000B7010008B7010008B7010008E948000876
:10011000B7010008B7010008B7010008B7010008DF
:10012000B7010008B7010008B7010008B7010008CF
:10013000B70100080000000000000000B70100083F
:10014000B7010008B7010008B7010008A54400087E
:10015000B7010008B7010008B7010008B70100089F
:10016000B7010008B7010008B7010008B70100088F
:10017000B7010008B70100080000000000000000FF
:10018000B7010008B7010008DFF80CD000F084FACE
:10019000004800472D760008982300200648804735
:1001A00006480047FEE7FEE7FEE7FEE7FEE7FEE75C
:1001B000FEE7FEE7FEE7FEE7AD4C00088901000818
:1001C0002DE9F05F0546002092469B46884606468C
:1001D000814640241BE0284641464746224600F01F
:1001E0006AF853465A46C01A914110D31146184630
:1001F000224600F051F82D1A67EB01084F462246BF
:100200000120002100F048F817EB00094E41201EA4
:10021000A4F10104DFDC484631462A464346BDE8E6
:10022000F09FD2B201E000F8012B491EFBD27047CB
:100230000022F6E710B513460A4604461946FFF7B2
:10024000F0FF204610BD00F0004230F000400AD020
:10025000C10D01F56071C0F3160042EA0151C208F8
:1002600040071143704700200146704730B50B46E8
:10027000014600202022012409E021FA02F59D42D6
:1002800005D303FA02F5491B04FA02F52844151EAA
:10029000A2F10102F1DC30BD202A04DB203A00FA91
:1002A00002F1002070479140C2F1200320FA03F3CD
:1002B000194390407047202A04DB203A21FA02F0CB
:1002C0000021704721FA02F3D040C2F12002914090
:1002D000084319467047F0B400F0004221F0004195
:1002E00020F00040CE0DC30DC1F3160141F4000112
:1002F000C0F316004C42154640F40000761E09E09B
:1003000010EB440002D582F0004240428842F7D808
:1003100040005B1EB342F9DA18B1F0BC002100F0D6
:10032000EEB92846F0BC70472DE9FE4F804681EAC1
:100330000300C00F0C46009021F0004123F000455F
:10034000B8EB0200A94105D24046214690461C4622
:100350000B46024623F00040104347D0270DC7F359
:100360000A00C3F30A510290401A019040286BDA48
:10037000C3F3130040F4801B0098924620B1002381
:10038000D2EB030A63EB0B0B01985946C0F1400214
:100390005046FFF781FF06460D4650465946019AE2
:1003A00000F092F910EB08006141002487EA115235
:1003B00084EAE7731A4340D0009A62B3019A012A93
:1003C0004FEA075215DC001B61EB02014FF00042BF
:1003D00002EA0752CDE90042001C41F58011324685
:1003E0002B4600F0C9F903B0BDE8F08F4046214626
:1003F000F9E7001B61EB0201001C41F580130018B6
:100400005B412018A2F5001747EB030140EAD570C5
:10041000B6196D4111E06D084FEA360645EAC07520
:100420004FEA0752001B61EB0201001C41F58011ED
:1004300049084FEA30000019514132462B4603B0BB
:10044000BDE8F04F00F089B9009801224000002378
:10045000D0EB020263EBE073009821464FEAE074B0
:10046000B8EB000061EB0401E9E783F000435BE7D0
:1004700081F0004158E72DE9FE4F81EA030404F0C2
:10048000004421F0004100944FF0000B23F00043A2
:1004900050EA01045ED052EA03045BD0C3F30A546D
:1004A000C1F30A552C44A4F2F3340194A0FB025486
:1004B000C1F3130141F48011C3F3130343F4801318
:1004C00001FB024400FB034E840A970A44EA81546C
:1004D00047EA8357A4FB076802958D0A05FB078549
:1004E0004FEA932C04FB0C542705029D4FEA065853
:1004F00047EA1637B5EB08056EEB070C870E920E30
:1005000047EA811742EA8312A7FB0201B6EB0B010F
:1005100064EB00042B0D43EA0C335E1844EB1C50D3
:10052000DA465146E7FB0201C5F313044FEA0B33E9
:1005300043EA14534FEA0432019C43EA0603A4F150
:100540000C040294009CCDE900B400F015F903B04E
:10055000BDE8F08F00200146F9E72DE9F04D81EA72
:10056000030404F0004B21F0004514464FF0000A4C
:1005700023F0004150EA050220D054EA01021DD0C8
:10058000C5F30A570246C5F31303C1F31300C1F3C1
:100590000A5640F4801543F48013A7EB0608101B9D
:1005A000D64608F2FD3873EB050002D308F10108C6
:1005B00001E092185B41B8F1000F03DA0020014618
:1005C000BDE8F08D00204FF48011064684460EE011
:1005D000171B73EB050705D3121B63EB05030643DB
:1005E0004CEA010C49084FEA300092185B4150EA8E
:1005F0000107EDD152EA030012D082EA040083EA37
:100600000501084305D0101BAB4106D2012200238F
:1006100006E000224FF0004302E06FF001025310A9
:100620001AEB06004CEB085110EB0A0041EB0B01F2
:10063000BDE8F04D00F091B8C1F30A52C1F31301C7
:1006400040F2FF3341F480119A4202DA0020014661
:10065000704740F233439A42A2F2334202DC5242E4
:10066000FFF729BEFFF718BE30B5041E71F1000474
:1006700004DB4FF00044404264EB0101141E73F1AF
:10068000000405DB1C464FF00043524263EB0403B9
:10069000994208BF904230BD1CB5094800900948F6
:1006A00001900546009C06E0E06840F0010394E8F4
:1006B000070098471034AC42F6D3FFF769FD0000FD
:1006C0004086000860860008202A06DBCB17203A07
:1006D00041FA02F043EAE07306E041FA02F3D04047
:1006E000C2F1200291400843194670470029A8BF73
:1006F0007047401C490008BF20F00100704710B44B
:10070000B0FA80FC00FA0CF050EA010404BF10BCFF
:10071000704749B1CCF1200421FA04F411FA0CF12C
:1007200018BF012121430843A3EB0C01CB1D4FEA65
:1007300000614FEA102042BF002010BC704700EB60
:10074000C35010440029A4BF10BC7047401C49008E
:1007500008BF20F0010010BC704710B5141E73F1E3
:10076000000408DA401C41F1000192185B411A4371
:1007700001D120F0010010BD2DE9F04D92469B46BD
:1007800011B1B1FA81F202E0B0FA80F22032904663
:10079000FFF782FD04460F4640EA0A0041EA0B01DA
:1007A00053465A46084313D0114653EA010019D064
:1007B000C8F140025046FFF77EFD05460E46504602
:1007C00059464246FFF768FD084305D0012004E082
:1007D00020463946BDE8F08D0020054346EAE07624
:1007E0002C4337430A986305E40AA0EB0800002273
:1007F000FD0A44EA47540A3002D500200146E9E7E1
:10080000010510196941DDE9084500196941BDE894
:10081000F04DA2E742F20000C4F201000168416815
:10082000806841F6F000C2F2000000F0A1BB0000B9
:10083000FEE70000002070470020704710B541F22D
:100840001464C2F2000440F61461C2F200012046B2
:10085000002204F0C5FC40F21461C2F200012046FF
:1008600004F0B0FC002010BD10B541F21464C2F2D7
:1008700000040146204604F0A5FC204604F07CFC60
:10088000002010BD0020704710B541F21462C2F282
:100890000002D2F8BC3292F89C42032C07D133B14B
:1008A00072B60A460146D3F8140218B162B60120A6
:1008B00010BD00BF41F21464C2F20004204604F0EF
:1008C0008FFC204604F010FD62B610BD30EEA01A79
:1008D0009FED072A31EE001A81EE021A41F61C70D4
:1008E000C2F2000080ED000A80ED011A704700BFDF
:1008F000D7B3DD3F40F20C02C2F2000213460229D8
:1009000008BF0833012908BF131D93ED000A01EE4B
:10091000100AB8EE411A31EE400A9FED061A9FED1B
:10092000062A20EE010A80EE020A9FED041A80EEEC
:10093000010A70473333534000F07F450BD7233C07
:1009400040F2DC1CC2F2000C9CF80030002B18BFF7
:100950007047B0B5DCE901E3DCE9034518440EF16A
:10096000010321442A44B3F5806FCCE90130CCF86F
:100970000C10CCF8102020D300EE100A9FED101AB6
:1009800002EE101A03EE102AB8EE400A40F20C00F4
:10099000B8EE422AB8EE433A20EE010AC2F2000055
:1009A00022EE012A23EE011A80ED000A80ED012AD1
:1009B00080ED021A01208CF80000BDE8B0407047BD
:1009C0000000803A80B540F2DC1040F20C02C2F226
:1009D00000000021C2F200024FF08A43C0E9011179
:1009E000C0E90311C2E900339360017041F6F000E1
:1009F000C2F2000000F08AF941F67460C2F2000011
:100A00000C21BDE8804002F099BE000040F2004099
:100A1000C4F202002021012200F03EBD7047000018
:100A200080B5402000F056FC802000F053FC4FF4CD
:100A30008070BDE8804000F04DBC000072B600BF81
:100A4000FEE7000040F23C10C2F2000090ED050A03
:100A50007047000003F082BD90F83C20012A04BFDB
:100A600002207047F0B5D1F800E001221FFA8EF79E
:100A70007B0080F83C200EEB4E0413FA8EF310221C
:100A8000BEF1090F88BFA3F11E0488BF0C220368C2
:100A90004FF0070C9E580CFA04F526EA05069E5006
:100AA0008E689D5806FA04F646EA05069E509A6B33
:100AB00098BF774622F440129A63D1F804C00A69BD
:100AC00000258C69CFF6F0759E6B05EB0255ACEBFB
:100AD0000202354303329D63D5B2AD0055FA82F26E
:100AE0001F259E6B954026EA05059D639D6B07FAC1
:100AF00002F22A439A639A68012522F470229A60CE
:100B00009A68C0F20F05AC4202D122F4401208E00C
:100B100022439A609A6822F440129A60CA699C68DB
:100B200022439A600A7D4C7D5D68002C25F4806527
:100B300018BF05F580655D605C68002A24F4805468
:100B4000ACF101024FF0200618BF04F580545C6040
:100B50001427032A38BF07EB82069A5940F6FF771D
:100B6000BA439A51CA689F5942F20431C4F2010152
:100B70003A43A1F54177BB429A5105D0002180F854
:100B80003C100020F0BD00BFBEF1120F02D14FF4A7
:100B9000800205E02EF00102102AEFD14FF400028E
:100BA0000B681A430A60002180F83C100020F0BD59
:100BB000016842F20002C4F20102914218BF70477C
:100BC000B0B50121044600F08FF840F25815C2F28A
:100BD000000568802046022100F086F8A8802046A3
:100BE000032100F081F8E88040F2DC10C2F200003E
:100BF00001786888002959D000210024FFF77AFE87
:100C000085ED020AA8880121FFF774FE85ED030A2D
:100C100095ED020A95ED031A30EE010AB1EE400A95
:100C200085ED040AFFF70EFF85ED0F0A95ED020A28
:100C3000D5ED030A95ED041AFFF748FE90EC020A81
:100C400095ED0F1A286403F0DBFD016868646962A2
:100C50004068A8626878A8B395ED080A95ED091A6E
:100C600005F1600030EE410A03F022FC85ED0B0A2D
:100C700095ED070A95ED0A1A41F6047030EE410A27
:100C8000C2F2000003F014FC85ED0C0A286BA86189
:100C900095ED0C0AD5ED0B0A95ED0F1A03F070FFD8
:100CA00001202870BDE8B040704700BFA988EA88DD
:100CB000FFF746FE0020A860E86028612870BDE8C4
:100CC000B040704705F1600003F044FC41F6047049
:100CD000C2F2000003F03EFCEC622C63012028709D
:100CE000BDE8B0407047000081B00022009200686B
:100CF00001396FF004020329026003D800EB810080
:100D0000C06B0090009801B07047000010B581B032
:100D10000021009190F83C10012903D1022001B07C
:100D200010BD00BF0468012180F83C10214651F835
:100D3000083FDB072BD10B6843F001030B6040F247
:100D40003403C2F20003D3F800C04DF68363C4F24B
:100D50001B33ACFB0332920C02EB42020092009A6E
:100D6000AAB100BF009A013A0092009A7AB1009AA3
:100D7000013A0092009A52B1009A013A0092009A08
:100D80002AB1009A013A0092009A002AEAD10A6830
:100D9000036CD2070CD143F01001016400F144014F
:100DA00001200A6810430860002001B010BD00BF98
:100DB00043F2010223EA020202F580520264026C4D
:100DC00042F2000CD2055CBF00224264002280F88F
:100DD0003C206FF0040020606068C4F2010C40F019
:100DE00080006060DCF80403A368D4F804E0C00667
:100DF0000CD064454FF0000005D113F4401108BF3A
:100E00001EF480610CD001B010BD00BF0EF48060F4
:100E100003F440128018C7D14FF48000C1E700BF2F
:100E20000CF108014FF48000BBE7000070B581B001
:100E30000022009290F83C20012A03D1022001B048
:100E400070BD00BFD1F800E001221FFA8EFC4FEA0E
:100E50004C0380F83C200EEB4E0213FA8EF3102464
:100E6000BEF1090F88BFA3F11E0288BF0C240368DE
:100E700007251E59954026EA05051D518D681E5906
:100E800005FA02F232431A514968062906D801EBE5
:100E900081014A1F194651F8345F0EE00C2901EB1D
:100EA000810105D8A1F12302194651F8305F04E011
:100EB000A1F14102194651F82C5F1F24944025EA04
:100EC00004040C600CFA02F20C6842F2043CC4F216
:100ED000010C2243ACF54174A3420A603ED1BEF13D
:100EE000120F07D1DCF8001041F48001CCF800109B
:100EF00034E000BF2EF0010110292FD1DCF80010E2
:100F0000BEF1100F41F40001CCF8001026D140F2E0
:100F10003401C2F2000109684DF68362C4F21B324B
:100F2000A1FB0212910C01EB810149000091009993
:100F3000A1B1009901390091009979B10099013965
:100F40000091009951B1009901390091009929B19E
:100F500000990139009100990029EAD1002180F817
:100F60003C10002001B070BD7047000070470000C9
:100F700070B50446006806684568B10717D515F0D6
:100F8000200114D0216CC90603D4216C41F40071F6
:100F90002164816811F0405F02D1217E002969D06F
:100FA0002046FFF7E1FF20686FF012010160710732
:100FB00014D515F0800111D0216CC90603D4216C21
:100FC00041F400512164816811F4401F30D0204663
:100FD000FFF7EEFD20686FF00C010160F10706D00D
:100FE00015F040011CBF01685FEAC17112D1B10662
:100FF0000FD515F0806108BF70BD616C6FF02005E2
:1010000041F00201616405602046FFF7AFFF2068F0
:10101000056070BD206C40F480302064204600F0F4
:10102000F1F820686FF001010160B106E1D4F0E74A
:10103000816B11F4401F02D081684905C7D4416813
:101040004905C4D4816811F0405FC0D1217E0029D8
:10105000BDD1416821F080014160206C20F48050B6
:101060002064206CC005B2D4206C40F001002064E4
:10107000ADE700BFC16A11F4700F03D08168490564
:101080003FF58EAF416821F020014160206C20F4D3
:1010900080702064206CC0043FF582AF206C40F06B
:1010A000010020647CE70000002804BF0120704795
:1010B00010B5016C00293DD0016CC90645D4016C06
:1010C00041F202129143023142F204320164C4F24D
:1010D0000102116821F440311160136890E8121088
:1010E0002343D0F810E013604A68012422F4807290
:1010F0004A604A68C0F6007442EA0E224A604A68B2
:1011000022F040724A604A6842EA0C024A608A68E9
:1011100022F400628A60C2688B681A438A60826A1D
:101120008B68A24223F070638B608B6810D123F030
:10113000405216E0044600F067F820460021616442
:1011400084F83C10016CC906B9D5012153E000BFF9
:101150001A438A608A6822F040528A60C26A8B68A9
:101160001A438A608A6822F002028A608A68037ED3
:1011700090F8204042EA43028A604A6884B142F40F
:1011800000624A604A684EF2000322F460424A60FC
:10119000426ACFF6FF734C6803EB4232224301E010
:1011A00022F400624A60CA6A40F2000C22F4700223
:1011B000CA62C3694269CFF6F07CCC6A0CEB035378
:1011C0002343CB628B6823F400738B6090F830303C
:1011D0008C6844EA43238B608B6823F480638B60C4
:1011E0008B6843EA82228A6000214164026C0123F9
:1011F00063F301020264002280F83C20BDE8104045
:10120000084670477047000080B586B042F2000182
:101210000068C4F20101002288420592CDE9032250
:101220000292019202D006B080BD00BF43F63000AA
:101230000092C4F20200436943F48073436143693E
:1012400003F480730093009B0092036843F004034F
:101250000360006800F004000090009807200190EF
:101260000320CDE9020201F5684001A900F03EF833
:1012700012200021002200F097F9122000F082F9DC
:1012800006B080BD90F83510022909D1052180F8FB
:1012900035100068016821F00101016000207047ED
:1012A0008021416501207047B0B5044600F0FAF88E
:1012B000054640F20400C2F200000078611C18BF2D
:1012C000044400BF00F0EEF8401BA042FAD3B0BDCA
:1012D0007047000043F61441C4F201010A6802425B
:1012E00014BF08607047FFF7F3BF00002DE9F04F0F
:1012F00083B000F1200200F13E4741F60045009224
:1013000007F1FF77C4F2020508224FEAB726A84288
:1013100008BF072200254FF000084FF00009072EF4
:1013200038BF4FEAB72201920AE000BF09F1010974
:1013300008F10208B9F1100F05F1040500F0A280D0
:101340000F68012202FA09FE17EA0E0AEED0D1F860
:1013500004C003220CF003077E1E02FA08F4012EDB
:101360006FEA040B12D88468CE6804EA0B0406FA0C
:1013700008F634438460446824EA0E06CCF3001473
:1013800004FA09F42643466004E000BF032F01D1AC
:1013900003271EE0C6688C6806EA0B0604FA08F408
:1013A0002643022FC66014D16FF00302009E02EAAA
:1013B000590756F807C005F01C040F220B69A2401C
:1013C0002CEA0202A3401A43F251D1F804C00CF0F7
:1013D0000307026807FA08F302EA0B021A431CF437
:1013E000403F0260A2D0002243F644030292C4F2BE
:1013F00002031A6843F6004442F480421A601A68F5
:10140000C4F2010402F480420292029A29F003021B
:101410004FF6084C2244CFF6FF7C52F80C3005F012
:101420000C070F26BE40B343019E06FA07F73B4365
:1014300042F80C30A2684B6842EA0A0743F60C4CAB
:10144000DE0258BF22EA0A07A760C4F2010CDCF8EA
:1014500000209E0242EA0A0758BF22EA0A07CCF897
:10146000007062689E0342EA0A0758BF22EA0A0730
:1014700067602268DB0342EA0A0758BF22EA0A07CC
:10148000276053E703B0BDE8F08F00000069084013
:1014900018BF012070470000002A08BF09048161BD
:1014A0007047000041F68C70C2F20000006870477F
:1014B00040F2040041F68C71C2F20000C2F2000159
:1014C00000780A68104408607047000080B543F651
:1014D0000040C4F20200016841F40071016001683B
:1014E00041F480610160016841F480710160032072
:1014F00000F086F80F2000F005F800F027F8002033
:1015000080BD000070B540F20406C2F2000640F251
:1015100034013278C2F200014FF47A730968B3FBE8
:10152000F2F20446B1FBF2F1084601F08DFC0F2CFB
:101530004FF0010508D838B94FF0FF30214600229E
:10154000002500F031F87460284670BD82B000209C
:1015500043F640010190C4F202014A6842F480421D
:101560004A604A6802F480420192019A0090086839
:1015700040F080500860086800F0805000900098AB
:1015800002B07047002848BF704700F01F010122D9
:1015900002FA01F11C2202EAD0004EF20012CEF251
:1015A000000281507047000010B54EF60C5CCEF280
:1015B000000CDCF80030C3F3022E8EF00704042C7C
:1015C00028BF0424BEF103034FF0FF3E0EFA04F4DB
:1015D00038BF0023A14399400EFA03F39A43114305
:1015E00000F00F0200F160430901043A03F564437F
:1015F0006244002848BF02F10C03197010BD0000BE
:101600004EF60C51CEF200010A684FF6FF031A4065
:1016100060F30A2242F0806040F0FD70086070477D
:101620007047000002680020516270472DE9F041C8
:10163000D0F80080D8F8243091B1D8F82870B1F1F2
:10164000010C03EB17414FD05FFA8CF708F582735A
:10165000042F0CF0030E0BD2002700242BE000BF58
:1016600043EA02410020C8F82810BDE8F08100BF1D
:101670000CF0FC0508F1F406002400BF56F8107FBA
:1016800044F0020001EB174144F00107FFB253F8A8
:101690002770C0B253F8200001EB174101EB104056
:1016A00044F00301C9B253F821100434E7B2AF4249
:1016B00000EB1141E2D1BEF1000F15D053F8270025
:1016C000BEF1010F01EB10410ED0601CC0B253F807
:1016D0002000BEF1020F01EB104105D0A01CC0B2EA
:1016E00053F8200001EB104141EA024008EB8C0165
:1016F000C1F804010020BDE8F0810000D0F8E0044A
:1017000004F028B901EBC102D0F8E03400EB82000C
:10171000026A184604F082B801EBC102D0F8E03446
:1017200000EB8200D0F86022184604F0D5B8000023
:10173000D0F8E00404F010B910B54FFA81FC4FF472
:10174000157201F00F0EBCF1000F48BF142290F883
:10175000944402440EEBCE034FEAD11C02EB83010A
:10176000012C81F801C002F823E004BF022010BD63
:101770000268012380F894340446104604F0EAFE1F
:10178000002084F8940410BDB0B5037901F00F0275
:101790009A4284BF0120B0BD4BB24FF41574002BA8
:1017A00048BF142400EB040E90F8944402EBC203EB
:1017B0004FEAD11C0EEB8301012C4FF0000481F89D
:1017C00001C08C700EF8232004BF0220B0BD026857
:1017D000012380F894340546104605F0AFF9204601
:1017E00085F89444B0BD000001F00F0101EBC10188
:1017F00000EB8100D0F868027047000010B54FFA86
:1018000081FE01F00F0CBEF1000F6FF3DF220CEB35
:10181000CC010DD400EB810E00240EF515718EF86D
:1018200055428EF854C2CEF85C228EF8583209E048
:1018300000EB810101F814CF01244C708A600B7118
:10184000A1F81AC0022B04BF00224A7190F8942418
:10185000012A04BF022010BD0268012380F89434DD
:101860000446104604F0E8FC002084F8940410BDFF
:1018700010B501F00F0E0EEBCE0100EB81044FF01E
:10188000000CC4F868C284F855C290F806C004F58C
:101890001571C4F86022C4F86432BCF1010F84F8F9
:1018A00054E208BFCA610068624605F091F9002061
:1018B00010BD0000B0B5027901F00F0494424FF062
:1018C00001022CD84BB24FF41575002B48BF1425DC
:1018D0004FEAD11C48BF2146054401EBC10305EB8B
:1018E000830181F801C090F894C48A70BCF1010FA3
:1018F00005F8234004BF0220B0BD0268012305465D
:1019000080F89434104605F043F92CB92868A97979
:1019100005F29C4205F0E4F8002285F89424104674
:10192000B0BD000001F00F0C0CEBCC0100EB81010D
:1019300001F814CF4FF0000C0B618379C1F814C08B
:101940004FF0010CCA60012B81F801C008BFCA61C9
:1019500080B500681A4605F03BF9002080BD000004
:101960002DE9F04F87B005688246284605F04CFB0C
:1019700010B107B0BDE8F08FDAF8000005F072FB97
:101980000028F6D0D5F80808C0F30D21DAF80000D9
:10199000CAF8D41405F066FB0146DAF8000089079E
:1019A00003D5416901F00201416105F5006104912F
:1019B00005F058FB0146DAF80000C906059535D553
:1019C000816921F0100181612C6A04F00F0000EBA5
:1019D000C0000AEB8001C4F34340062801F51575E9
:1019E00012D002281BD147F6F07014EA000616D078
:1019F000E96834090598224605F038FBE86800EBF1
:101A00001610E86008E000BF05980AF29C41082221
:101A100005F02CFBC4F30A14686920446861DAF805
:101A20000000816941F010018161059D05F01AFBFC
:101A3000000340F1F180DAF8000005F0F1FA002827
:101A400000F0EA8006460AF29C404FF43068002419
:101A50004FF0000B069019E005EB080002218160B1
:101A6000B80642BF05EB080020218160B80442BFE0
:101A700005EB08004FF4005181600BF1010B760873
:101A800008F1200804F1240400F0C680F007F4D027
:101A9000DAF800005FFA8BF9494605F0DBFA0746F1
:101AA000C00760D005EB080001218160DAF8000072
:101AB00008EB0001036C8A689AF80650012D25D1C5
:101AC000150733D4950600F19F8043F20B05C4F649
:101AD0005475AB42059D02D312F4004230D10AEB9B
:101AE0000402D2F8743209696FF3DF41A3EB0101FC
:101AF000C2F868129CBBD2F86432002B00F08A80D6
:101B0000D2F860020844C2F8600228E043F20B05F4
:101B1000C4F65475FF35AB4218D1059D10040FD49F
:101B2000900644BF2020886019E000BF43F20B00FC
:101B3000C4F65470059D834215D312F4004012D0B0
:101B40004FF40040886038070FD43DE0059D34B95C
:101B5000DAF8641219B90021069A04F0C1FF504660
:101B60004946FFF7D9FD38072ED505EB08000821B7
:101B70008160DAF8000043F20B02056C4044816892
:101B8000C4F6547295420BD311F4004108D04FF4BF
:101B900000418160504600F019FD059D0AE000BF3C
:101BA000504600F013FD43F20B00C4F6547085421A
:101BB000059D09D39AF80600012805D1DAF800003E
:101BC000069A012104F08CFFF80642BF05EB0800DD
:101BD00010218160B8077FF543AF6869000604D51E
:101BE0000499486840F4806048600AEB040090F86B
:101BF000571201297FF430AF002180F85712504668
:101C0000494600F031FB27E720208860059D380712
:101C1000ABD4D9E701219FE7DAF80000CDF818A08E
:101C200005F020FA400340F1D3800698006805F0E3
:101C3000EFF9002800F0CC800646069805F51069FB
:101C400000F1140100F29C40002703910190CDF8AF
:101C5000089004E0760807F1010700F0B980F0076A
:101C6000F8D006985FFA87FA0068514605F0E0F967
:101C70000446C00726D0049A07F00F00516B0123D9
:101C800003FA00F021EA0000506309EB471083607B
:101C900006988079012811D1039907EBC70001EB61
:101CA0008000D0E902121144C1603FB9006928B92F
:101CB0000698019A0068012104F012FF0698514627
:101CC000FFF720FD200742BF09EB47100821816084
:101CD000E00642BF09EB471010218160600642BF59
:101CE00009EB471040218160A00716D528463946E8
:101CF00005F01CF9039907EBC70001EB800010F811
:101D0000031F012905D1002101700698514600F0FA
:101D1000A7FA09EB47100221816020069AD50399A2
:101D200007EBC70001EB8008D8E90420824291D379
:101D30000699D8F808300C68111A994238BF0B463A
:101D400004EB4711D1F818C903F1030E1FFA8CF305
:101D5000B3EB9E0F2DD301F5106900BFD8F810200A
:101D6000824224D9101A069AD8E902B195795845C9
:101D700038BF83461FFA8BF3204652460095059DD7
:101D800005F01CFCD8F80C00D8F814105844C8F81A
:101D90000C0001EB0B00C8F81400D9F818100BF177
:101DA000030289B2B1EB920FD8D2D8F81020DDF837
:101DB000089082423FF64EAF07F00F00D4F8341877
:101DC000012202FA00F021EA0000C4F8340841E7D9
:101DD000DDF81890D9F8000005F044F9002821D466
:101DE000D9F8000005F03EF900053AD4D9F8000012
:101DF00005F038F9C00445D50499486820F0010081
:101E00004860D9F80000102105F090F899F8040016
:101E1000010600F0EC80C1B2042900F0030035D2C5
:101E200000219AE00499486820F00100486099F880
:101E3000CC04012808D1002089F8CC0448460021B0
:101E4000FFF7EEFB03E000BF484600F0A3FBD9F824
:101E50000000416901F00041416105F003F900050E
:101E6000C4D504988068C00702D0484600F0D6FB6D
:101E7000D9F80000416901F40061416105F0F2F810
:101E8000C004B9D4D9F80000DDE000BF6FF06002F3
:101E900002EA411200234FF67F370021EE18C6F800
:101EA0000879D6F80059803325F40015C6F8005992
:101EB000C6F8087BD6F8005B9A4225F40015C6F8F0
:101EC000005BD6F8005B01F1040145F00065C6F83F
:101ED000005BC6F82879D6F8205925F40015C6F815
:101EE0002059C6F8287BD6F8205B25F40015C6F8E3
:101EF000205BD6F8205B45F00065C6F8205BC6F88D
:101F00004879D6F8405925F40015C6F84059C6F866
:101F1000487BD6F8405B25F40015C6F8405BD6F840
:101F2000405B45F00065C6F8405BC6F86879D6F8B6
:101F3000605925F40015C6F86059C6F8687BD6F8D4
:101F4000605B25F40015C6F8605BD6F8605B45F071
:101F50000065C6F8605B059DA0D1002847D005F557
:101F6000106202EB41134FF67F374E019F60955987
:101F7000059B25F4001503F53063955103EB4115DE
:101F8000AF609D59012825F400159D519D5945F0DC
:101F900000659D512BD04E1C02EB46147501A760C5
:101FA000545903EB461624F400145451B7605F599A
:101FB000022827F400175F515F5947F000675F510F
:101FC00015D0881C02EB40174FF67F364101BE60EA
:101FD000575803EB401027F40017575086605858A5
:101FE00020F400105850585840F000605850049F9A
:101FF0008421F869442240F00110F86199F80F003B
:1020000000284FF00B0008BF142108BF42F22B003C
:102010007B5808BF102218437850B85840F00B0086
:10202000B850386809F29C4220F4FE603860D9F854
:10203000000099F8061004F053FDD9F8000041693A
:1020400001F48051416105F00DF80146D9F8000016
:1020500089041AD504F032F9D9F8000004F0C6FF5B
:10206000D9F8004089F8070000F0A4FB99F8072090
:102070000146204605F016FA484600F075FAD9F8F0
:102080000000416901F40051416104F0EBFF0007D9
:1020900006D4D9F8000004F0E5FF00060DD437E0BF
:1020A000484600F07BFAD9F80000416901F00801C8
:1020B000416104F0D7FF00062AD50599886920F010
:1020C0008000886199F80400022821D309F515746D
:1020D00009F11405012640F27B2704E0013686420F
:1020E00007F1240714D219F807100129F6D106F0D8
:1020F0000F0000EBC0023006D9F8000005EB8201AA
:1021000058BF04EB820104F081FE99F80400E5E772
:10211000D9F8000004F0A6FFC0024BD4D9F80000A3
:1021200004F0A0FF059D80027CD599F804100229D7
:1021300026D305F53260013909F51F72012304E049
:102140002030013902F124021AD007681678012ED6
:10215000F6D1B7F1FF3FF3DCD9F8D46486EA17472C
:10216000FF07EDD102F8013CAF6947F08007AF618E
:102170006F693F06E4D40499486840F400704860F1
:10218000D9F80000416901F40011416104F06AFFCF
:1021900040004DD54846FFF7B1FAD9F80000416933
:1021A00001F08041416104F05DFF40077FF5E1AB44
:1021B00045E000BF99F80400022827D3059909F1EA
:1021C000140401F5126509F13B064FF001080127DF
:1021D00006E000BF01372035874206F1240615D2FC
:1021E00029687278012AF5D1B1F1FF3FF2DC07F0DE
:1021F0000F0000EBC001D9F8000004EB810186F864
:10220000008004F003FE99F80400E3E7D9F8000029
:10221000416901F48011416104F024FF059D8002B1
:102220003FF583AFD9F8000004F01CFF4000B1D4A3
:10223000D9F8000004F016FF40077FF59AABD9F8F3
:1022400000004468610704D54846FFF771FAD9F8E1
:10225000000041682143416007B0BDE8F08F0000F5
:10226000D0F8E00403F0DCBBD0F8E00403F0EEBBF0
:10227000002804BF01207047F0B581B0044605680E
:1022800090F8950428B9002084F89404204600F0C2
:1022900027F90320B5F1A04F84F8950404BF00206E
:1022A000A071206804F014FC94E80F00267C0096CE
:1022B00004F014F8002840F000812068002104F0A8
:1022C0002BFF002840F0F98094F804E0BEF1000FE5
:1022D00000F0EC800EF0030CBEF1040F4FF0000292
:1022E00040D30EF0FC03A4F190000321012500BFB0
:1022F000CE1E80F8A460A0F8BE608E1E80F8C86074
:10230000A0F8E2604E1E80F8EC60A0F8066180F84C
:102310001011A0F82A110E1D013180F8A55080F887
:10232000A820C0E92B22C0F8B42080F8C95080F85A
:10233000CC20C0E93422C0F8D82080F8ED5080F8D5
:10234000F020C0E93D22C0F8FC2080F8115180F84F
:102350001421C0E94622C0F820219030994231462C
:10236000C6D1F21EBCF1000F31D004F1140002EB13
:10237000C20100EB8105012300F821200021BCF1FE
:10238000010F6B706A832971C5E9021129611ED0A2
:10239000551C05EBC50600EB8607BCF1020F7B70F0
:1023A00000F826507D833971C7E9021139610ED0DA
:1023B000911C01EBC10200EB8203012500F8221001
:1023C00000205D7059831871C3E902001861BEF1E5
:1023D000000F6BD0BEF1040F4FF0000236D30EF0A9
:1023E000FC000321234600BFCF1E83F854728F1ECA
:1023F00083F878724F1E83F8C0120D1D013183F8E7
:10240000552283F85822C3E99722C3F8642283F83F
:10241000792283F87C22C3E9A022C3F8882283F8BA
:102420009D2283F89C7283F8A022C3E9A922C3F8F5
:10243000AC2283F8C12283F8C422C3E9B222C3F8D4
:10244000D022903381422946CED1EA1EBCF1000F42
:102450002CD004F5157002EBC20300EB83070021BA
:10246000BCF1010F797000F823203971C7E902111E
:1024700039611BD0531C03EBC30700EB8706BCF18B
:10248000020F717000F827303171C6E90211316115
:102490000CD0911C01EBC10200EB820300275F709E
:1024A00000F822101F71C3E902771F6194E80F0042
:1024B000277C009704F0B0F830B1022084F895042E
:1024C000012001B0F0BD00BF00206074012084F83D
:1024D0009504206804F090F8002001B0F0BD0000E1
:1024E000B0B586B000680024B0F1A04F0594CDE9E6
:1024F00003440294019401D006B0B0BD43F6300508
:102500000094C4F20205286801A940F00100286087
:10251000286800F00100009000984FF4C05001902E
:102520000220CDE90204032004900A200590002037
:10253000C4F20200FEF7DAFE6868002140F0800075
:10254000686000946869002240F4804068616869AE
:1025500000F48040009000984320FFF725F84320C6
:10256000FFF710F806B0B0BD10B50446C07928B129
:10257000022801D0FEF762FA012100E00021D4F820
:10258000E00403F0EBFAD4F8E004BDE8104003F0F7
:1025900099BA0000D0F8E00403F0C6BAD0F8E0041D
:1025A00003F0CCBA90F89424012A04BF02207047AB
:1025B00010B5012280F89424417402680446104644
:1025C00004F05EFF002084F8940410BDD0F8E024ED
:1025D00000F29C41104603F0D7BA000010B5044643
:1025E00090F89404012804BF022010BD2068012146
:1025F00084F89414C168490606D5617B012903D18A
:10260000816B41F48031816304F088FC206803F021
:10261000E3FF002084F8940410BD000010B50446C8
:10262000D0F8E00403F006FB2068D0F8001E41F06B
:102630000101C0F8001EE07A002808BF10BD4EF668
:102640001050CEF20000016841F00601016010BD9B
:10265000002804BF012070472DE9F04143F6080827
:10266000C4F202080446D8F8F8030D4600F007004B
:10267000814207D988F8F853D8F8F80300F007002A
:10268000A84277D12068810717D5410705D5D8F82A
:10269000001041F4E051C8F80010010705D5D8F842
:1026A000001041F46041C8F80010D8F80010A2688A
:1026B00021F0F0011143C8F80010C00740D1D8F84C
:1026C000F80300F00700854207D288F8F853D8F8DD
:1026D000F80300F00700A8424CD12068410707D555
:1026E000D8F80010E26821F4E0511143C8F8001056
:1026F000000708D5D8F80000216920F4604040EABE
:10270000C100C8F8000000F05BF8D8F8001048F2EB
:10271000E052C1F30311C0F60002515C40F23402F2
:1027200020FA01F140F20800C2F200000068C2F293
:1027300000021160FEF7E6FE0020BDE8F08100BF58
:102740006068811E022907D258F8081C89015CBF05
:102750000120BDE8F08111E0012807D158F8081CDC
:1027600089035CBF0120BDE8F08107E058F8081C30
:10277000890703D40120BDE8F08100BFD8F800101C
:1027800021F003010843C8F80000FEF78BFE06465F
:1027900041F28837D8F80000616800F00C00B0EB17
:1027A000810F8CD0FEF77EFE801BB842F2D9032049
:1027B000BDE8F08140F23400C2F2000000687047CA
:1027C00010B543F60404C4F202046168C1F3810148
:1027D00042F20040C0F2F400DFE801F002040A0215
:1027E00010BD00BF41F20020C0F27A0010BD00BF52
:1027F000216801F03F02216823684902C3F3881170
:1028000006D4A1FB00010023FDF7DAFC07E000BFBE
:1028100041F20020C0F27A004843B0FBF2F0216898
:102820000222C1F3014102EB4101B0FBF1F010BD06
:10283000002804BF012070472DE9F04182B0044612
:10284000007843F60006C007C4F202060CD0B06858
:1028500000F00C00042840F081803068800303D52C
:102860006068002800F06881207880071BD5B06878
:1028700010F00C0F09D0B06800F00C00082840F0F0
:1028800087807068400200F183803068800703D53C
:10289000E068012840F050813068216920F0F8009C
:1028A00040EAC10030602078000713D42078400748
:1028B0002AD4A569002D00F03A81B06800F00C0020
:1028C000082840F0A580012D40F00E81012002B0C3
:1028D000BDE8F0816069002800F082800020C4F229
:1028E00047200121C0F8801EFEF7DCFD054600BF31
:1028F000706F8007DAD4FEF7D5FD401B0228F7D9A8
:10290000032002B0BDE8F081306C5FEAC0080AD451
:1029100000200190306C40F080503064306C00F04A
:1029200080500190019847F20007C4F20007386810
:10293000C00547D4386840F480703860FEF7B2FDB7
:10294000054600BF3868C0053CD4FEF7ABFD401B10
:102950000228F7D9032002B0BDE8F081B06800F08A
:102960000C00082803D1706840023FF576AF61681B
:102970003068B1F5803F07D0B1F5A02F40F09A80C4
:1029800040F480203060306840F4803030609AE05D
:10299000E068002840F20000C4F247205CD001212A
:1029A0000160FEF77FFD0546306880073FF574AF94
:1029B000FEF778FD401B0228F6D9032002B0BDE8DF
:1029C000F08100BFA168306F012905D0052955D1DC
:1029D00040F004003067306F40F00100306756E08F
:1029E0000020C4F247200021C0F8801EFEF75AFDE7
:1029F000054600BF706F80077FF558AFFEF752FDA8
:102A0000401B0228F6D9032002B0BDE8F08100BFC8
:102A10000027C4F2472700203866FEF743FD022D49
:102A200005460DD13068800140F18A80FEF73AFDFD
:102A3000401B02284FF00300F4D902B0BDE8F0813A
:102A40003068800173D5FEF72DFD401B02284FF042
:102A50000300F5D9F1E700BF00210160FEF722FD78
:102A6000054600BF306880077FF51DAFFEF71AFDF1
:102A7000401B02284FF00300F4D9DEE720F00100EC
:102A80003067306F002920F0040030677AD0FEF7FD
:102A900009FD054641F28837306F800700F18480D8
:102AA000FEF700FD401BB842F6D9032002B0BDE896
:102AB000F08100BF20F4803030603068002920F4BD
:102AC000802030607AD0FEF7EDFC05463068800348
:102AD0003FF5CAAEFEF7E6FC401B6428F6D903209A
:102AE00002B0BDE8F08100BF7068E16900F48002C7
:102AF0008A4221D1216A00F03F028A421CD147F666
:102B0000C071626A0140B1EB821F15D1A16A4FF614
:102B1000FF73C903994300F44032A1F580318A4222
:102B20000AD1E16A00F07060B0EB016F04D10020BF
:102B300002B0BDE8F08100BF012002B0BDE8F08125
:102B400004F11C052FCD084340EA8210D9034FF64B
:102B5000FF729143A1F5803140EA0560084370603F
:102B600001203866FEF79EFC044600BF30688001F5
:102B7000DDD4FEF797FC001B02284FF00300F5D9C7
:102B80005BE700BFFEF78EFC054641F2883700BFC9
:102B9000306F800708D5FEF785FC401BB8424FF028
:102BA0000300F5D949E700BFB8F1000F3FF581AE4A
:102BB000306C20F0805030647BE600BFFEF772FC82
:102BC000054600BF306880037FF54EAEFEF76AFC15
:102BD000401B64284FF00300F4D92EE77047000033
:102BE000B0B582B001684A688B6803F04105012DD9
:102BF00008D112F0400505D0016C02B0BDE8B0402C
:102C0000084700BF9D0707D512F0800504D0416C2E
:102C100002B0BDE8B040084713F4B07F18BF12F00F
:102C2000200501D102B0B0BD5D0618D590F8515015
:102C3000032D09D100200190C86801908868019097
:102C4000019802B0B0BD00BF456D45F00405456573
:102C500000250195CD6801958D680195019D9D0622
:102C600004D4DB0511D4436DDBB9DBE7456D45F0DA
:102C700001054565002501958D6801950D6825F0D4
:102C800040050D60019DDB05EDD5436D43F0080364
:102C90004365002301938B680193019B436D002BD7
:102CA000C0D04B68920723F0E0034B604FF0010364
:102CB00080F8513026D04A6844F6F50422F0030229
:102CC0004A60C16CC0F6000459B1054608460C655F
:102CD000FEF7D8FA0146284619B1416D41F040018E
:102CE0004165816C00299DD00C6504460846FEF7BD
:102CF000C9FA002896D0606D40F04000606502B0CF
:102D0000B0BD00BF02B0BDE8B040FFF767BF000034
:102D100070B528B1416A29B100210161142106E092
:102D2000012070BD4168B1F5827F02D01C210022D4
:102D300042500026866290F8511029B980F8506000
:102D4000054600F03DF82846022180F8511090E831
:102D50002E0002F482720C6803F4044324F0400451
:102D60000C601A4405F4006305691A4405F0020377
:102D700045691A4405F001038569C4691A4405F4DC
:102D800000731A4404F03803046A1A4404F0800300
:102D9000846A1A4304F400531A430A60436A042203
:102DA00002EA154203F010031A444A60CA6922F489
:102DB0000062CA610121466580F85110304670BD3D
:102DC00080B586B043F600410068C4F200010022DD
:102DD00088420592CDE903220292019202D006B008
:102DE00080BD00BF43F630000092C4F202000369C8
:102DF00043F400430361036903F400430093009B21
:102E00000092036843F004030360006800F00400CC
:102E1000009000984FF4E05001900220CDE90202AA
:102E2000032004900620059001F5E63001A9FEF785
:102E30005DFA332000210022FEF7B6FB3320FEF7B7
:102E4000A1FB06B080BD0000411E0020B0EB116F59
:102E50001CBF012070474EF21002CEF200025160FA
:102E60004EF62351CEF20001F0230B700721906043
:102E700011607047704700007047000090F83C20D8
:102E8000012A04BF02207047B0B501F108053CCD0E
:102E9000D1E900CE23F47C5322F470521A432EF46D
:102EA000F0431A432CF4E0431A4324F4C0431A437A
:102EB0002A43C96922F480420368114359640021FE
:102EC00080F83C100020B0BD90F83C20012A4FF063
:102ED000020254D010B580F83D200268D2F804E018
:102EE000D2F808C00C682EF07003234341F2FF743F
:102EF000C4F20004A24253600EDC40F2FF73C4F23D
:102F000000039A4216DCB2F1804F2BD040F200430E
:102F1000C4F2000324E000BF40F2FF33C4F2010317
:102F20009A4213DC41F60003C4F200039A4219D01E
:102F3000002313E040F60003C4F200039A4211D0CC
:102F400040F60043C4F200030AE000BF44F200036D
:102F5000C4F201039A4205D040F20043C4F20103D7
:102F60009A4204D149682CF08003194391600121F1
:102F7000002280F83D1080F83C20BDE8104010464B
:102F800070470000C1B1042908D0082914BF4522A8
:102F90004422825C012A05D016E000BF4322825CF5
:102FA000012A11D10222082910D0042914BF80F867
:102FB000452080F843200BE090F84220012A03D1FD
:102FC000022280F8422003E00120704780F844206C
:102FD000006801F00F010422036A02FA01F123EAFA
:102FE00001020262026A11430162416C41F2FF7206
:102FF000C4F2000241F40041904241640EDC40F210
:10300000FF71C4F20001884216DCB0F1804F2BD072
:1030100040F20041C4F2000124E000BF40F2FF3161
:10302000C4F20101884213DC41F60001C4F2000140
:10303000884219D0002113E040F60001C4F20001DB
:10304000884211D040F60041C4F200010AE000BFFE
:1030500044F20001C4F20101884205D040F200416F
:10306000C4F20101884206D1816801F007010629F6
:1030700004BF00207047016841F001010160002099
:1030800070470000002804BF0120704710B50446B7
:1030900090F83D0028B9002084F83C00204600F05C
:1030A0001FF8022084F83D002068211D01F034FE45
:1030B000012084F8460084F83E0084F83F0084F83C
:1030C000400084F8410084F8420084F8430084F80A
:1030D000440084F8450084F83D00002010BD000045
:1030E00010B582B00068B0F1804F2DD00021C4F23D
:1030F0000101884244D10020019043F64000C4F20F
:1031000002004168002241F001014160406806214F
:1031100000F00100019001981820FEF745FA1820F0
:10312000FEF730FA192000210022FEF73DFA19209F
:10313000FEF728FA1A2006210022FEF735FA1A2097
:10314000FEF720FA1B240FE00020009043F6400019
:10315000C4F2020001681C2441F001010160006812
:1031600000F0010000900098204600210022FEF7A8
:103170001BFA204602B0BDE81040FEF703BA00BFBC
:1031800002B010BD90F83D1001291CBF012070470E
:10319000022180F83D10006841F2FF72C168C4F25C
:1031A0000002904241F00101C1600DDC40F2FF716C
:1031B000C4F20001884215DCB0F1804F2AD040F201
:1031C0000041C4F2000123E040F2FF31C4F20101EA
:1031D000884213DC41F60001C4F20001884219D094
:1031E000002113E040F60001C4F20001884211D032
:1031F00040F60041C4F200010AE000BF44F20001C1
:10320000C4F20101884205D040F20041C4F201013C
:10321000884206D1816801F00701062904BF002019
:103220007047016841F00101016000207047000013
:1032300090F83C20012A4FF002026CD080B580F853
:103240003D20D0F800C04FF67772DCF8083023EA52
:103250000202CCF808200B684F2B29DC1F2B45DD20
:10326000202B46D0302B44D0402B40F0AF80D1F8FB
:1032700004E0C968DCF82030DCF8202022F00102EC
:10328000CCF82020DCF8182022F0F00242EA0111EC
:1032900023F00A0242EA0E02CCF81810CCF82020E3
:1032A000DCF8081041F0470121F0300128E000BFB0
:1032B0006F2B33DDB3F5005F74D0B3F5805F21D0A1
:1032C000702B40F08380D1E901E3C968DCF8082065
:1032D00043EA0E0322F47F4243EA01211143CCF872
:1032E0000810DCF8081041F0770109E00BB1102B51
:1032F0006CD1DCF8081021F07001194341F007018E
:10330000CCF808100022012180F83D10002180F83F
:103310003C10BDE880401046704700BF502B21D0C4
:10332000602B53D1D1F804E0C968DCF82030DCF818
:10333000202022F01002CCF82020DCF8182022F403
:10334000704242EA013123F0A00242EA0E12CCF8A8
:103350001810CCF82020DCF8081041F0670121F0AB
:103360001001CDE7D1F804E0C968DCF82030DCF8C2
:10337000202022F00102CCF82020DCF8182022F0D6
:10338000F00242EA011123F00A0242EA0E02CCF8EE
:103390001810CCF82020DCF8081041F0570121F07B
:1033A0002001ADE7D1E901E3C968DCF8082043EA70
:1033B0000E0322F47F4243EA01211143CCF80810A6
:1033C000DCF8081041F480419AE700BF01229AE737
:1033D0007047000070B504460068C5680669B1070B
:1033E00016D515F0020113D06FF002010161012121
:1033F00021778069800703D02046FFF7E9FF05E0C9
:10340000204600F069F9204600F07EFB002020777E
:10341000700719D515F0040016D020686FF004016C
:10342000016102212177806910F4407F04D0204699
:10343000FFF7CEFF06E000BF204600F04DF9204622
:1034400000F062FB00202077300717D515F0080048
:1034500014D020686FF00801016104212177C06950
:10346000800703D02046FFF7B3FF05E0204600F0B9
:1034700033F9204600F048FB00202077F00619D5EC
:1034800015F0100016D020686FF0100101610821BE
:103490002177C06910F4407F04D02046FFF798FFE1
:1034A00006E000BF204600F017F9204600F02CFB94
:1034B00000202077F00718BF15F0010002D1300678
:1034C00009D412E020686FF001010161204600F08C
:1034D000A5FB300609D515F0800006D020686FF0F6
:1034E000800101612046FFF7C5FC700609D515F083
:1034F000400006D020686FF040010161204600F0D6
:103500001FFCB00658BF70BD15F0200008D0216820
:103510006FF0200220460A61BDE87040FFF7ACBCA6
:1035200070BD000090F83C30012B04BF02207047B2
:103530004FEAB202032A00F2C980F0B5DFE802F0D8
:10354000028A3264026840F20045136A166A23F068
:10355000020326F001061662D2F804E0D2F818C081
:103560008E6842F48064C4F20105AC4243EA06036B
:1035700005D1CE6823F00C0326F0040633430E6811
:10358000AC4206D1D1E905472EF44075254345EA02
:10359000070E2CF073073743C2F804E097614968BF
:1035A000516389E0026840F20045136A176A23F408
:1035B000007327F480771762D2F804E0D2F81CC0B9
:1035C0008E6842F48064C4F20105AC4243EA0623EB
:1035D00007D1CE6840F2FF47360223F44063BE4372
:1035E00033430E68AC4206D1D1E905452EF440576D
:1035F000254347EA051E2CF073073743C2F804E061
:10360000D7614968D16357E0026840F20047D2F8B9
:1036100020E0136A42F4806623F4805313625368F7
:10362000D4690D68D1F808C0C4F20107BE4204D1C4
:103630004E6923F4804343EA861324F4E64646EABF
:1036400005265360D66149682EF4005747EA0C33CB
:10365000116431E0026840F20045136A176A23F0F2
:10366000200327F010071762D2F804E0D2F818C040
:103670008E6842F48064C4F20105AC4243EA06134A
:1036800007D1CE686FF0400723F0C00307EA0616A3
:1036900033430E68AC4206D1D1E905452EF44067AC
:1036A000254347EA850E2CF4E64747EA0627C2F889
:1036B00004E097614968916300211362BDE8F0401E
:1036C000002280F83C200846704700BF01210022FC
:1036D00080F83C200846704770470000002804BF6F
:1036E0000120704710B5044690F83D0028B900202D
:1036F00084F83C00204600F01FF8022084F83D00CA
:103700002068211D01F008FB012084F8460084F8A0
:103710003E0084F83F0084F8400084F8410084F8BB
:10372000420084F8430084F8440084F8450084F89B
:103730003D00002010BD000070470000F1B10429D9
:1037400008D0082914BF41224022825C012A05D0FA
:1037500024E000BF3F22825C012A1FD102220829F7
:1037600020D0042914BF80F8412080F83F204FEA80
:10377000B103032B4FF001020DD81BE090F83E205F
:10378000012A0BD1022280F83E204FEAB103032B1D
:103790004FF001020ED91046704700BF01221046BB
:1037A000704700BF80F840204FEAB103032B4FF071
:1037B0000102F0D848F2F05C0068C0F6000C5CF83A
:1037C00023C0C36801F01F0143EA0C03C360036A0E
:1037D00002FA01F123EA01020262026A114341F294
:1037E000FF72C4F20002904201620BDC40F2FF71F2
:1037F000C4F20001884213DCB0F1804F36D040F2B1
:10380000004115E040F2FF31C4F20101884215DCAD
:1038100041F60001C4F20001884227D0002115E0E2
:1038200040F60001C4F2000188421FD040F600417A
:10383000C4F20001884219D01FE000BF44F2000129
:10384000C4F20101884211D040F20041C4F20101EA
:10385000884212D1416C40F2004340F48062C4F2CD
:10386000010341F400419A42416406D1816801F0AC
:103870000701062904BF00207047016841F00101DB
:10388000016000207047000090F83C30012B04BF1D
:10389000022070474FEAB202032A00F2FF802DE9AE
:1038A000F043DFE802F003B13F7F00BF036840F25E
:1038B00000461C6A1A6A24F0020422F001021A620D
:1038C0001A46D3F804C052F818EF8F6843F48065A5
:1038D000C4F20106B54244EA070405D1CF6824F0DA
:1038E0000C0427F004073C430F68B54206D1D1E928
:1038F00005582CF440762E4346EA080C2EF0730649
:103900003743C3F804C09F614F6809695F631C6255
:103910009F6947F008079F619F6927F004079F612F
:10392000B1E000BF036840F200481C6A1A6A24F440
:10393000007422F480721A621A46D3F804C052F856
:103940001CEF8F6843F48065C4F20108454544EAE2
:10395000072408D1CF6840F2FF463F0224F44064B8
:1039600027EA06063443D1F80090454506D1D1E94F
:1039700005562CF440572E4347EA061C2EF07307D9
:1039800047EA0907C3F804C0DF614F680969DF63CC
:103990001C62DF6947F00807DF61DF6927F0040771
:1039A000DF6170E0036840F20045D3F820C01A6A76
:1039B00043F4806722F480521A621A465C6852F817
:1039C0001C8FD1F800E08E68C4F20105AF4204D12B
:1039D0004D6924F4804444EA85142CF4005747EAE6
:1039E000063728F4E64646EA0E265C60DE614E683D
:1039F00009691E641F62DF6947F40067DF61DF69E0
:103A000027F48067DF613DE0036840F200481C6AEC
:103A10001A6A24F0200422F010021A621A46D3F81F
:103A200004C052F818EF8F6843F48065C4F20108AF
:103A3000454544EA071407D1CF686FF0400624F0EB
:103A4000C00406EA07163443D1F80090454506D174
:103A5000D1E905562CF440672E4347EA860C2EF434
:103A6000E64747EA0927C3F804C09F614F68096920
:103A70009F631C629F6947F400679F619F6927F4F9
:103A800080679F6109021368194311600021BDE836
:103A9000F043002280F83C200846704701210022B4
:103AA00080F83C2008467047002804BF012070477A
:103AB00010B5044690F83D0028B9002084F83C0079
:103AC000204600F01FF8022084F83D002068211DE8
:103AD00001F022F9012084F8460084F83E0084F8C1
:103AE0003F0084F8400084F8410084F8420084F8E4
:103AF000430084F8440084F8450084F83D00002029
:103B000010BD00007047000070470000C1B10429DB
:103B100008D0082914BF41224022825C012A05D026
:103B200016E000BF3F22825C012A11D1022208293F
:103B300010D0042914BF80F8412080F83F200BE00A
:103B400090F83E20012A03D1022280F83E2003E0B3
:103B50000120704780F84020006801F01F01012219
:103B6000036A02FA01F123EA01020262026A1143C6
:103B700041F2FF72C4F20002904201620CDC40F29A
:103B8000FF71C4F20001884214DCB0F1804F37D0DD
:103B900040F2004116E000BF40F2FF31C4F20101E3
:103BA000884215DC41F60001C4F20001884227D0AA
:103BB000002115E040F60001C4F2000188421FD048
:103BC00040F60041C4F20001884219D01FE000BF56
:103BD00044F20001C4F20101884211D040F20041D8
:103BE000C4F20101884212D1416C40F2004340F41A
:103BF0008062C4F2010341F400419A42416406D15B
:103C0000816801F00701062904BF002070470168A0
:103C100041F0010101600020704700000068B0F130
:103C2000804F18BF7047B0B52DED028B00F0DAF869
:103C300040F25815C2F2000595ED0E0A9FED3B1AB1
:103C400030EE010AB0EE081AB4EE410AF1EE10FAB5
:103C500085ED0E0A24DA95ED0D0A9FED351A9FEDDC
:103C6000362A30EE010A9FED331AB4EE420A30EEE6
:103C7000011AF1EE10FAB8BFB0EE401A9FED2F0A0C
:103C8000F0EE080A85ED0D1A00F07AFF0020E861D9
:103C9000A8616870BDEC028BBDE8B040704700BF02
:103CA000687878B905F1480000F054FC05F160002F
:103CB00000F050FC41F60470C2F2000000F04AFC33
:103CC00001206870FCF7C6FE95ED051A05F1480461
:103CD000B0EE408A31EE400A204600F0E9FB85ED67
:103CE000070A95ED050AB5EE400AF1EE10FAD1D1BA
:103CF000B0EEC80AB7EE001AB4EE410AF1EE10FABF
:103D0000C8DA204600F026FC05F1600000F022FC35
:103D100041F60470C2F2000000F01CFC0020E861D3
:103D2000A861BDEC028BBDE8B040704717B7D13831
:103D30006E12033BDB0FC9C0DB0FC940000000005F
:103D400070470000F0B581B04EF6FC50CEF2000096
:103D5000016841F2000741F080710160CEF2000776
:103D600000207860386840F6000440F00100C4F29A
:103D70000204386020464021FDF788FB05462046B6
:103D80008021FDF783FB064620464FF48071FDF746
:103D90007DFB710041EA8501084348F22062C1B20F
:103DA000C0F6000202EB810140F23C1491ED000AE2
:103DB000C2F20004207084ED010A786849F24001E3
:103DC00040F6922204F10803C0F20201C3F68672A3
:103DD00007C384ED050A00F0C9FB6069A06101B06A
:103DE000F0BD00002DE9F04140F60004C4F20204E9
:103DF00041F2040820464021CEF20008FDF746FBC0
:103E0000054620468021FDF741FB064620464FF43B
:103E10008071FDF73BFB710040F23C1441EA8501E3
:103E2000C2F2000401432578CFB2A368AF422FD07D
:103E3000481EC6B2062E2BD2D8F80020D01A48F25F
:103E40002063C0F6000303EB870308BF012093ED56
:103E5000000A6B1EDBB2052BE06084ED010A13D86B
:103E600040A7BF5D41A6F35C9FED442A3B44DBB213
:103E700040A7042B08BF043797ED001A0A2B08BF90
:103E8000B0EE421A84ED041A1346A260217002E0DB
:103E9000E06894ED010AD8F8001002EE100AC91A81
:103EA00001EE101AB8EE411AB8EE422A81EE021A5B
:103EB000B7EE002A94ED043AB4EE421AF1EE10FA8D
:103EC000C8BFB0EE421A21EE032A9FED2D1A32EE42
:103ED000000AB4EE410AF1EE10FA36DB9FED292A12
:103EE00030EE020AB4EE410AF1EE10FA2DDB30EEAC
:103EF000020AB4EE410AF1EE10FA26DB30EE020AB5
:103F0000B4EE410AF1EE10FA1FDB30EE020AB4EE15
:103F1000410AF1EE10FAE3DA17E000BF30EE010AD1
:103F2000B5EE400AF1EE10FA14DA30EE010AB5EE01
:103F3000400AF1EE10FA0DDA30EE010AB5EE400A51
:103F4000F1EE10FA06DA30EE010AB5EE400AF1EEB3
:103F500010FAE3DB84ED050A00F05AFB84ED060A53
:103F6000BDE8F0810608070A05090000FFFDFEFB19
:103F700000FC0000920A863F920A86BF920A86BF22
:103F8000DB0FC940DB0FC9C0FEE7000080EC020A6E
:103F90007047000090ED001A90ED012AB7EE003A4C
:103FA00033EE413A23EE022A21EE000A30EE020AF5
:103FB00080ED010A7047000070B58CB041F6F0004A
:103FC00042F2000101230024C2F20000C4F2010108
:103FD0000125C0F600730B94CDE90644CDE90444F5
:103FE000CDE90244CDE900444FF48032047680F8F4
:103FF0002040C0E90A34C56180F8304080E81600EE
:10400000C0E903454561FDF74FF8002818BFFCF7EC
:1040100015FD41F6F0000A26C2F2000008A9CDE91C
:1040200008650A94FCF702FF002818BFFCF706FD9C
:1040300001200190032004904FF4801007904FF46A
:10404000803006900020ADF81400039041F6F00097
:104050000224C2F20000694600960294FCF7FCFCC0
:10406000002818BFFCF7EAFC0B20CDE9000441F65C
:10407000F000C2F200006946FCF7EEFC002818BF11
:10408000FCF7DCFC0C2000900320019041F6F000CE
:10409000C2F200006946FCF7DFFC002818BFFCF7FD
:1040A000CDFC0CB070BD0000F0B587B0002643F623
:1040B00030000696CDE90466CDE902660196C4F2A9
:1040C0000200016840F2004441F00401016001680F
:1040D000C4F2020401F00401019101990196016802
:1040E000002241F0800101600168232501F0800178
:1040F000019101990196016841F002010160016896
:1041000001F00201019101990196016841F001015C
:1041100001600068232100F0010001900198204611
:10412000FDF7BAF9029502AD012720462946CDE9EF
:1041300003760596FDF7DAF84FF4E07002904FF43D
:104140004410CDE9030604F580602946FDF7CEF85A
:10415000802002A9C1C120462946FDF7C7F81720D3
:1041600000210022FDF720FA1720FDF70BFA07B017
:10417000F0BD000070B541F61C6043F60041C2F28C
:104180000000C4F200014FF4827200234FF4006C6F
:104190004FF0020E012480E80E5000F114014FF49C
:1041A0000075102670C10A21C0E90833C0E90A3140
:1041B000FEF7AEFD002808BF70BDBDE87040FCF7FB
:1041C0003DBC00002DE9F0419CB040F2000841F6F2
:1041D0007460C4F201080021C2F20000202241F202
:1041E000670380261591CDE913111191CDE90F11C7
:1041F000CDE90D11CDE90B11CDE90911CDE907117B
:10420000CDE90511CDE90311CDE90111C0E9008126
:10421000C0E90223C0E904118661FEF733FF0028DC
:1042200018BFFCF70BFC4FF48050129041F67460FD
:10423000C2F2000012A9FEF7FBFF002818BFFCF72E
:10424000FDFB41F67460C2F20000FFF72DFC002870
:1042500018BFFCF7F3FB41F67460C2F20000FFF7F1
:104260003DFA002818BFFCF7E9FB2020109041F62A
:1042700074600024C2F2000010A91194FEF724FE1D
:10428000002818BFFCF7DAFB6020CDE9090441F6ED
:104290007460C2F2000009A90022CDE90B44CDE907
:1042A0000D440F94FFF7F0FA002818BFFCF7C6FB87
:1042B00041F67460C2F2000009A90422FFF7E4FA93
:1042C000002818BFFCF7BAFB41F67460C2F2000088
:1042D00009A90822FFF7D8FA002818BFFCF7AEFB9F
:1042E00040F634000A9041F674600024C2F20000E7
:1042F00009A90C220994FFF715F9002818BFFCF74B
:104300009DFBA820CDE901440394CDE90404089461
:1043100041F674644FF40050C2F20004069001A903
:104320002046FEF7ABFD002818BFFCF787FB20688E
:10433000002640451B96CDE919661896179603D0BE
:104340001CB0BDE8F08100BF43F630001696C4F201
:104350000200016817AC41F0020101600168022708
:1043600001F002011691169916960168012541F097
:10437000010101600068214600F0010016901698C6
:104380004FF46040179008F58230CDE918761A9600
:104390001B95FCF7ABFF4FF4E060CDE9170708F57C
:1043A00080302146CDE919661B95FCF79FFF1CB0B4
:1043B000BDE8F08180B586B041F6BC600021C2F254
:1043C00000004FF0630C0591CDE90311CDE9001118
:1043D0004FF080425323C0E9021C01618021C0E9F3
:1043E00000238161FEF74EFE002818BFFCF726FB74
:1043F0004FF48050029041F6BC60C2F2000002A966
:10440000FEF716FF002818BFFCF718FB41F6BC604A
:10441000C2F200006946FEF757FD002818BFFCF7FE
:104420000DFB06B080BD000080B541F2146040F283
:104430001801C2F20000C2F20001002201F0B4F93A
:10444000002818BFFCF7FAFA41F2146040F2380174
:10445000C2F20000C2F2000101F018FC002818BFEF
:10446000FCF7ECFA41F2146040F2D401C2F2000011
:10447000C2F2000100F09AFE002818BFFCF7DEFA35
:1044800041F21460C2F2000001F02AFC002808BFCB
:1044900080BDBDE88040FCF7D1BA0000FEE7000017
:1044A000FEE7000041F63810C2F20000FDF758BAEE
:1044B00090ED014A9FED233A90ED045A20EE044A14
:1044C00090ED032A24EE034A90ED001A34EE054ADB
:1044D000B4EE424A20EE011AF1EE10FAB0EE425A62
:1044E00080ED044A06DCB1EE425AB4EE454AF1EEE4
:1044F00010FA03DAB0EE454A80ED045A90ED055A01
:1045000090ED026A30EE455A26EE055A85EE033AE2
:1045100031EE041A80ED050A31EE031AB4EE421AA8
:10452000F1EE10FAC4BFB0EE420A7047B1EE420A93
:10453000B4EE401AF1EE10FAB8BFB0EE401AB0EE89
:10454000410A704717B7D138002180EC040AC0E94E
:10455000041170470021C0E90411704740F2301087
:10456000C2F2000090ED010A704700009FED261A8C
:10457000B4EE410AF1EE10FA37DB9FED242A00BFBA
:1045800030EE020AB4EE410AF1EE10FA2DDB30EE05
:10459000020AB4EE410AF1EE10FA26DB30EE020A0E
:1045A000B4EE410AF1EE10FA1FDB30EE020AB4EE6F
:1045B000410AF1EE10FAE3DA17E000BF30EE010A2B
:1045C000B5EE400AF1EE10FA14DA30EE010AB5EE5B
:1045D000400AF1EE10FA0DDA30EE010AB5EE400AAB
:1045E000F1EE10FA06DA30EE010AB5EE400AF1EE0D
:1045F00010FAE3DB40F23010C2F20000002180ED3F
:10460000000AC0E901117047DB0FC940DB0FC9C0C8
:1046100040F23010C2F2000090ED011A9FED602AC6
:1046200090ED004A21EE021A9FED5E3A31EE041A37
:10463000B4EE431AF1EE10FA37DB9FED5B4A00BF90
:1046400031EE041AB4EE431AF1EE10FA2DDB31EE1E
:10465000041AB4EE431AF1EE10FA26DB31EE041A16
:10466000B4EE431AF1EE10FA1FDB31EE041AB4EE89
:10467000431AF1EE10FAE3DA17E000BF31EE031A45
:10468000B5EE401AF1EE10FA14DA31EE031AB5EE77
:10469000401AF1EE10FA0DDA31EE031AB5EE401AB7
:1046A000F1EE10FA06DA31EE031AB5EE401AF1EE29
:1046B00010FAE3DB9FED3D4A30EE410AB4EE440AC6
:1046C000F1EE10FA80ED001A1EDD9FED375A00BFA3
:1046D00030EE050AB4EE440AF1EE10FA14DD30EEC5
:1046E000050AB4EE440AF1EE10FA0DDD30EE050ACB
:1046F000B4EE440AF1EE10FA06DD30EE050AB4EE2F
:10470000440AF1EE10FAE3DC9FED294AB4EE440AC4
:10471000F1EE10FA1BDA30EE030AB4EE440AF1EEC1
:1047200010FA14DA30EE030AB4EE440AF1EE10FA8D
:104730000DDA30EE030AB4EE440AF1EE10FA06DAAE
:1047400030EE030AB4EE440AF1EE10FAE3DB9FED1B
:10475000193A90ED024A20EE033A23EE022A9FED29
:10476000163A32EE042AB4EE432AF1EE10FA80ED46
:10477000022A06DC9FED113AB4EE432AF1EE10FA5C
:1047800003DAB0EE432A80ED023AB3EE0E3A20EEA1
:10479000030A30EE022AB0EE410A80ED012A70478A
:1047A00017B7D138DB0FC940DB0FC9C0DB0F494059
:1047B000DB0F49C00000FA4300606A4600606AC629
:1047C00010B541F67464C2F2000420460021FFF7E0
:1047D0009DF920460021FEF7D5FB20460421FFF776
:1047E00095F920460421FEF7CDFB20460821FFF76E
:1047F0008DF920460821BDE81040FEF7C3BB00003C
:1048000080B52DED088BB0EE40AAB0EE410AB0EEB7
:10481000418AB0EE609A03F0D3F8B0EE40BAB0EE41
:10482000480A02F0CDFF29EE0B1A2AEE002A32EEDA
:10483000011A41F6247029EE000A2AEE0B2AC2F270
:10484000000030EE420A80ED001A80ED010ABDEC56
:10485000088B80BD7047000010B52DED088B40F22D
:1048600058149FED1D8A9FED1E9AC2F20004DFEDE1
:104870001B0A04F14800F1EE041AB0EE480AB0EE4B
:10488000491AFFF761FE9FED17AAB2EE08BA04F1CC
:104890006000B0EE4A0AF0EE480AB0EE491AF0EEB7
:1048A0004B1AFFF751FE41F60470C2F20000B0EE61
:1048B0004A0AF0EE480AB0EE491AF0EE4B1AFFF73A
:1048C00043FE0020C4E90D006070E0612062A06139
:1048D000BDEC088B10BD00BF9A99193ECDCC4C3D64
:1048E00000000000CDCCCC3E41F61C60C2F20000BE
:1048F000FEF776B9806B0021C187C186FEF76EB9DD
:104900007047000010B52DED088B20EEA01A20EEA8
:10491000002A32EE011AB1EEC11A9FED652AB7EEF8
:10492000004A9FED658A40F20814B0EE489AB0EE56
:1049300048AAC2F2000482EE013AB4EE421A9FED98
:104940005D2AF1EE10FAC8BFB0EE434A20EE841A99
:1049500020EE040A21EE021ABEEE002A20EE023AF0
:1049600033EE014A33EE411AB4EE404AB0EE403A1B
:10497000F1EE10FAC8BFB0EE443AB4EE431AF1EECD
:1049800010FAB4EE404AB0EE405AC8BFB0EE413A19
:10499000F1EE10FAB8BFB0EE445AB4EE451AF1EE9B
:1049A00010FAB8BFB0EE415A33EE053A23EE022AB0
:1049B00030EE020AB2EE083A30EE030A34EE024A52
:1049C00031EE021AB3EE082AB4EE420A34EE034A7C
:1049D00031EE031AF1EE10FAB0EE423AB5EE400AAB
:1049E000B8BFB0EE403AF1EE10FAB4EE424AA8BFBA
:1049F000B0EE439AF1EE10FAB0EE420AB5EE404A3C
:104A0000B8BFB0EE440AF1EE10FAB4EE421AA8BFF5
:104A1000B0EE40AAF1EE10FAB8BFB0EE412AB5EE02
:104A2000401A2078F1EE10FAA8BFB0EE428AD8B949
:104A3000B5EE00BA04F11000B0EE4B0AF0EE490AF0
:104A4000FFF7A4FA04F11800B0EE4B0AF0EE4A0AA0
:104A5000FFF79CFA04F12000B0EE4B0AF0EE480A92
:104A6000FFF794FA0120207004F11000B0EE490A1B
:104A7000FFF790FA84ED010A04F11800B0EE4A0A3B
:104A8000FFF788FA84ED020A04F12000B0EE480A2C
:104A9000FFF780FAB0EE401A94ED010AD4ED020A55
:104AA00084ED031ABDEC088BBDE8104000F006B899
:104AB000D7B35D41D7B35D3F00000000B3EE082AD5
:104AC00080EE020A80EE823A81EE021AB7EE004AC8
:104AD000B0EE445A40F2D0109FED276AC2F20000B7
:104AE000B4EE440AF1EE10FAB5EE400AB8BFB0EEEB
:104AF000405AF1EE10FAB4EE443AB8BFB0EE465A5E
:104B0000F1EE10FAB0EE440AB5EE403A80ED005AEC
:104B1000B8BFB0EE430AF1EE10FAB4EE441AB8BFD3
:104B2000B0EE460A80ED010AF1EE10FAB8BFB0EE21
:104B3000414AB5EE401AF1EE10FAB8BFB0EE464A5F
:104B40009FED0E1A80ED024A41F67460C2F2000039
:104B500025EE012A006820EE010ABCEEC22ABCEE56
:104B6000C00A80ED0D2A80ED0E0A24EE010ABCEE8B
:104B7000C00A80ED0F0A7047000000000040834526
:104B800080B52DED088B41F69070C2F2000090EDDB
:104B9000002A9FED19AAB0EE608AB0EE409A31EE7D
:104BA000020AF0EE4A0A02F0B3FE30EE0AAAB5EEAF
:104BB000400AF1EE10FAA8BFB0EE40AAB0EE4A0AE1
:104BC00002F0FEFEB0EE40BAB0EE4A0A02F0F8FD86
:104BD00029EE0B1A28EE002A32EE411A29EE000ABD
:104BE00028EE0B2A72EE000AB0EE410ABDEC088BEB
:104BF000BDE88040FFF786BEDB0FC940FCF758BC1C
:104C000070B592B006AC20463021FBF711FB0025B1
:104C100043F640000595CDE90355CDE901550095D2
:104C2000C4F202000168022641F080510160006870
:104C300000F080500090009847F200000095C4F208
:104C40000000016841F480410160006800F4804088
:104C500000900098012006904FF4803007904FF4A8
:104C600080000D9004200E90A820CDE90F060720AB
:104C7000119020460C96FDF7DBFD18B172B600BF0F
:104C8000FEE700BF0F20CDE901064FF4A0500490CD
:104C90004FF48050059001A805210395FDF7D8FC3D
:104CA00010B172B6FEE700BF12B070BD4EF688506C
:104CB000CEF20000016841F470010160704700000D
:104CC00041F67460C2F20000FEF784BB41F67460E6
:104CD000C2F2000000680069C00605D50C20C4F2CD
:104CE000010041680168406941F67460C2F2000049
:104CF000FEF770BB41F67460C2F20000FEF76ABBBB
:104D000041F67460C2F20000FEF764BB41F6BC607D
:104D1000C2F20000FEF75EBBB0B540F6FF3E05688C
:104D2000C4F2000E40F2004C7045C4F2010C25DCC8
:104D3000B0F1804F2FD040F20043C4F200039842FC
:104D400029D040F60003C4F20003984223D041F674
:104D5000FF73C4F20003984228DC70453ADCB0F1DE
:104D6000804F5BD040F20043C4F20003984255D01C
:104D700040F60003C4F200034EE000BF40F60043DB
:104D8000C4F20003984206D0604504D00023C4F268
:104D900001039842DBD14B6825F0700243EA02051B
:104DA00041F6FF73C4F200039842D6DD43F6FF7369
:104DB000C4F2010398421FDC42F20003C4F2000374
:104DC00098422BD00023C4F20103984226D06045BC
:104DD00024D028E040F60043C4F2000398421DD0DE
:104DE00041F60003C4F20003984217D041F6004395
:104DF000C4F2000310E000BF44F20003C4F2010358
:104E000098420BD044F60003C4F20103984205D047
:104E100044F20043C4F20103984204D1CB6825F464
:104E2000407243EA02050A688C684B69C46240F428
:104E300080648262644504BF09690163026825F0E9
:104E4000800142F0040219430260012242610160C4
:104E5000B0BD0000D0F8D42200EB820CDCF8C032E8
:104E6000002B04BF03207047B0B501F00F0404EB22
:104E7000840200EB820E5EF8142F5AB1D0F8C852AB
:104E800004EBC40405EB8404E469B2FBF4F505FB10
:104E900014229AB10020C3F81402DCF8C422D2F81C
:104EA00010C0BCF1000F08BFB0BDD3F808020A461D
:104EB00003F50471E0470020B0BD00BF00220023CD
:104EC000CEF8002000F0C4FE0020B0BDB0B5D0F890
:104ED000D42200EB8202D2F8C0529DB1044600F009
:104EE0004DFDD4F8D412C5F80C0204EB8101D1F8C1
:104EF000C412D5F80402CA6805F503719047002072
:104F0000B0BD00BF0320B0BD70B58121044600F0E4
:104F100073FC00252046012184F8375000F06CFC1A
:104F20002046822184F8775100F066FCD4F8D40240
:104F300004F5307656F8201084F84B50656489B13A
:104F400004EB8000D0F8C40240688047D4F8D40253
:104F500056F8200001F068F9D4F8D40246F8205041
:104F6000C4F8BC52002070BD10B5D0F8D41200EBCC
:104F70008100D0F8C0428CB1D0F8C41259B194F875
:104F80000002FF2807D08B6894F801222146984739
:104F9000FF2084F80002002010BD00BF032010BDD8
:104FA000014640F2B4000A22C2F200000A807047B3
:104FB000F0B581B040F27007C2F2000704463846EF
:104FC000822100F02FFB06463846012100F02AFB23
:104FD00005463846812100F025FB002E1CBF10211C
:104FE000B171002D1CBF4021A98000281CBF4021A9
:104FF0008180432140F27000C2F20000218001B0A4
:10500000F0BD0000F0B581B040F27007C2F20007B9
:1050100004463846822100F005FB06463846012149
:1050200000F000FB05463846812100F0FBFA002E17
:105030001CBF1021B171002D1CBF4FF40071A9805D
:1050400000281CBF4FF400718180432140F27000A2
:10505000C2F20000218001B0F0BD0000F0B581B0C7
:1050600040F27007C2F2000704463846822100F081
:10507000D9FA06463846012100F0D4FA05463846EA
:10508000812100F0CFFA002E1CBF1021B171002D3C
:105090001CBF4021A98000281CBF402181804321E2
:1050A00040F27000C2F20000218001B0F0BD0000AB
:1050B0002DE9F04104464FF4077001F0B7F80028DD
:1050C00050D04FF407710546FBF7B2F8D4F8D4027C
:1050D000402704EB8000C0F8C052207CC4F8BC52CA
:1050E000002808BF4FF400772046812102223B466A
:1050F000022600F0C1FC4FF00108204601210222E7
:105100003B4684F8378000F0B7FC102060642046EE
:1051100082210322082384F8778100F0ADFCD4F8C3
:10512000D4020027C5F8047204EB8000D0F8C40252
:1051300084F84B8000688047C5F81472C5F818726F
:10514000D5F8042252B1207C01210028204614BF4A
:1051500040234FF4007300F0A3FC00263046BDE866
:10516000F08100BFD4F8D402002104EB8000C0F825
:10517000C0120220BDE8F081D0F8D41200EB81010A
:10518000D1F8C012002904BF0320704780B590F801
:1051900010C0D1F8042240230121BCF1000F08BF48
:1051A0004FF4007300F07CFC002080BD00290FBF8D
:1051B0000320D0F8D42200EB8200C0F8C41218BF3C
:1051C00000207047D0F8D42200EB8200D0F8C00253
:1051D00000280EBF0320C0F8041200207047000012
:1051E000D0F8D43200EB8300D0F8C00200280FBF03
:1051F0000320C0F80812C0F81022002070470000F9
:10520000F0B581B0D0F8D42200EB8203D3F8C042CD
:105210000022002C8DF80320ADF8002060D00D781E
:1052200015F0600218D0202A58D1CA88002A29D047
:105230006DB2B5F1FF3F2FDD4978402A84F80012A6
:10524000214628BF402284F8012200F099F800246A
:10525000204601B0F0BD00BF4A780B2A3ED800249A
:10526000DFE802F008063C3C3C3C3C3C3C3C2A3835
:10527000EEE700BF90F89C22032A2FD16946022254
:1052800021E000BFD3F8C4020022836848780024DC
:105290009847204601B0F0BDD3F8C43206469D6859
:1052A0004B780F4618462146A847FA883046072A09
:1052B00028BF0722214606E090F89C22032A0DD140
:1052C0000DF10301012200F077F80024204601B01F
:1052D000F0BD00BF90F89C22032AB9D000F044F83A
:1052E0000324204601B0F0BDD0F8D41200EB8101B8
:1052F000D1F8C022002A04BF03207047D2F814124C
:1053000000294FF0010101D00846704780B5C2F86E
:105310001412D2F81032D2F808228121836200F0F0
:1053200097FC0021BDE880400846704780B5D0F862
:10533000B82252689047002818BF032080BD0000A3
:10534000002070470020704780B513460A460021B0
:1053500000F0A6FB002080BD80B513460A46002160
:1053600000F076FC002080BD10B58021044600F0DE
:105370003DFC20460021BDE8104000F037BC000095
:1053800080B513460A460321C0F894120021C0F8E4
:105390006421C0E9553300F083FB002080BD00008C
:1053A00080B50521C0F8941200210022002300F0EE
:1053B00077FB002080BD000080B513460A4602211D
:1053C000C0F8941200214262C0E9053300F040FCAD
:1053D000002080BD80B50421C0F894120021002275
:1053E000002300F035FC002080BD000010B540F225
:1053F000F414C2F200040A4602A0214600F054F957
:10540000204610BD43444320436F6E666967000029
:1054100040F2C0001222C2F200000A807047000071
:1054200010B540F2F414C2F200040A4602A021466C
:1054300000F03AF9204610BD43444320496E74659C
:10544000726661636500000040F2E8000422C2F267
:1054500000000A807047000010B540F2F414C2F258
:1054600000040A4602A0214600F01EF9204610BDA5
:1054700053544D6963726F656C656374726F6E69C6
:105480006373000010B540F2F414C2F200040A463F
:1054900002A0214600F008F9204610BD53544D33B8
:1054A00032205669727475616C20436F6D506F7253
:1054B0007400000047F61020C1F6FF700268836890
:1054C0004FF01A0C9B18A1F800C000F0A680B0B5F0
:1054D0004FF0370C1A0F0CEB13714068B3F1204FEB
:1054E00038BF02F1300140F2EC02C2F200029170CA
:1054F00019014FF0000E0CEB117582F803E0C3F3B5
:105500000364B1F1204F38BF04F130051902157161
:105510000CEB117582F805E0C3F30354B1F1204F91
:1055200038BF04F13005190395710CEB117582F841
:1055300007E0C3F30344B1F1204F38BF04F1300555
:10554000190415720CEB117582F809E0C3F30334EA
:10555000B1F1204F38BF04F13005190595720CEBFD
:10556000117582F80BE0C3F30324B1F1204F38BF6B
:1055700004F1300519061573C3F303140CEB117510
:10558000B1F1204F4FEA037103F00F0382F80DE0F1
:1055900038BF04F1300503F13704957382F80FE04A
:1055A000B1F1204F38BF03F13004010F0CEB107341
:1055B000147482F811E0B0F1204F38BF01F13003CC
:1055C00001010CEB1174937482F813E0C0F30363D0
:1055D000B1F1204F38BF03F1300401021475C0F35C
:1055E00003530CEB1174B1F1204F4FEA003182F8F4
:1055F00015E038BF03F130040CEB1173947582F899
:1056000017E0C0F30340B1F1204F38BF00F1300381
:10561000137682F819E0BDE8B04040F2EC00C2F227
:1056200000007047B0F802C003789C459CBF002082
:10563000704780B508E000BF82788A4208BF80BD0D
:1056400073449AB262452DD290F800E070444278DB
:10565000052A02D182788A4225D073449AB26245E3
:1056600020D290F800E070444278052A02D1827876
:105670008A4218D073449AB2624513D290F800E07F
:1056800070444278052A02D182788A420BD0734452
:105690009AB2624506D290F800E070444278052A3A
:1056A000CAD0CDE7002080BD002808BF704710B5E4
:1056B00003783BB300F1020EF44600BF1CF8013C36
:1056C0005BB19CF8003043B19CF801302BB19CF8E1
:1056D00002300CF1040C002BF0D14FF0000C00BF95
:1056E0001EF8013C93B19EF800309BB19EF801304A
:1056F000A3B19EF802300CF1040C002B0EF1040E45
:10570000EED10DE04FF0000C0AE000BF4CF0010CB0
:1057100006E000BF4CF0020C02E000BF4CF0030CAE
:105720005FFA8CFC022303EB4C03138003220B7003
:105730004A700378A3B3023002224FF0000C00BF7E
:105740005FFA82FE51FA82F401F80E3084F801C04B
:1057500010F8013C23B3941C5FFA84FE51FA84F4E0
:1057600001F80E3084F801C00378CBB1141D5FFA44
:1057700084FE51FA84F401F80E3084F801C04378B5
:1057800073B1941D5FFA84FE51FA84F401F80E306F
:1057900084F801C083780832002B00F10400CFD1D7
:1057A000BDE8104070470000002804BF0320704788
:1057B0000023C0F8B832C0F8C4320029C0F8D03293
:1057C00018BFC0F8B412012180F89C12027000F0DA
:1057D000D9B8000080B5D0F8C802FBF7D5FF40F279
:1057E0000032C100C0F2013222FA01F1032888BF61
:1057F0000321C8B280BD000080B5D0F8C802FBF715
:105800009BFF40F20032C100C0F2013222FA01F1E6
:10581000032888BF0321C8B280BD0000B0B589B19C
:1058200090F89C22032A54D1D0F8B8225269002A59
:105830004FD00023C0F8D4329047002808BF002082
:10584000B0BD00BFD0F8941202293BD18169038C0E
:1058500099420FD9CA1A416A8261194441620446C9
:10586000FFF77AFD204600210022002300F018F9FE
:1058700027E000BF10D142698A420DD3D0F89812B8
:105880008A4209D20021002204460025FFF764FD68
:10589000C4F89852E6E700BF90F89C12032909D19A
:1058A000D0F8B812C96829B10022C0F8D422044641
:1058B000884720468021044600F098F92046FFF7EB
:1058C0006FFD204690F8A01200291CBF002180F82F
:1058D000A0120020B0BD000010B579B190F89C2254
:1058E000032A22D1D0F8B8229269F2B10023C0F87D
:1058F000D4329047002808BF002010BDD0F8941281
:10590000032912D1D0F85811B0F8602191420FD973
:105910008B1AD0F86411C0F858311144C0F86411E2
:10592000934288BF1A46FFF70FFD002010BD00BF4D
:1059300090F89C12032909D1D0F8B812096929B14D
:105940000022C0F8D422044688472046FFF742FDD3
:10595000002010BD00207047012180F89C12D0F873
:10596000B812002904BF0020704780B54A68017949
:105970009047002818BF032080BD0000D0F8C8025F
:10598000FBF732BF017809B10020704710B541F62E
:105990003811C2F20001C1F8E004C0F8C8124FF09B
:1059A000A0400860042008714FF40070C8800220F5
:1059B000C1F809000020C8810846FCF759FC0028FE
:1059C00018BFFBF73BF841F63814C2F2000420463A
:1059D0008021FBF727FE204600214022FBF726FE10
:1059E000204601218022FBF721FEBDE81040002067
:1059F00070470000D0F8C80201F07F034AB203EB01
:105A0000C30301EBC10100EB830300EB810000F253
:105A10005620002A48BF03F11600007870470000A6
:105A2000D0F8D42200EB8202D2F8B822002A04BFB8
:105A30000320704790F89C32032B05D1126A1AB1EB
:105A400080B59047002080BD00207047D0F8D42258
:105A500000EB8202D2F8B822002A04BF032070476C
:105A600090F89C32032B05D1526A1AB180B5904749
:105A7000002080BD0020704780B59446D0F8C80251
:105A80001A466346FBF7BAFE40F20032C100C0F28C
:105A9000013222FA01F1032888BF0321C8B280BD78
:105AA00080B5D0F8C802FBF7E3FE40F20032C10037
:105AB000C0F2013222FA01F1032888BF0321C8B2E3
:105AC00080BD0000F0B581B00126002580F89C6201
:105AD000C0F8945204464560D0F8B802C4F8A45205
